:020000040000fa
:080000000002040000000000f2
:020000040000fa
:0400080012040000de
:020000040000fa
:04000c007e0300006f
:020000040000fa
:04001000ca0300001f
:020000040000fa
:04001400a203000043
:020000040000fa
:04001800ee030000f3
:020000040000fa
:04001c0012040000ca
:020000040000fa
:0400200012040000c6
:020000040000fa
:0400240012040000c2
:020000040000fa
:0400280012040000be
:020000040000fa
:04002c0012040000ba
:020000040000fa
:0400300012040000b6
:020000040000fa
:040034004003000085
:020000040000fa
:0400380012040000ae
:020000040000fa
:04003c0012040000aa
:020000040000fa
:0400400012040000a6
:020000040000fa
:0400440012040000a2
:020000040000fa
:04004800120400009e
:020000040000fa
:04004c00120400009a
:020000040000fa
:040050001204000096
:020000040000fa
:040054001204000092
:020000040000fa
:04005800120400008e
:020000040000fa
:04005c00120400008a
:020000040000fa
:040060001204000086
:020000040000fa
:040064001204000082
:020000040000fa
:04006800120400007e
:020000040000fa
:04006c00120400007a
:020000040000fa
:040070001204000076
:020000040000fa
:040074001204000072
:020000040000fa
:04007800120400006e
:020000040000fa
:04007c00120400006a
:020000040000fa
:040080001204000066
:020000040000fa
:040084001204000062
:020000040000fa
:04008800120400005e
:020000040000fa
:04008c00120400005a
:020000040000fa
:040090001204000056
:020000040000fa
:040094001204000052
:020000040000fa
:04009800120400004e
:020000040000fa
:04009c00120400004a
:020000040000fa
:0400a0001204000046
:020000040000fa
:0400a4001204000042
:020000040000fa
:0400a800120400003e
:020000040000fa
:0400ac00120400003a
:020000040000fa
:0400b0001204000036
:020000040000fa
:0400b4001204000032
:020000040000fa
:0400b800120400002e
:020000040000fa
:0400bc00120400002a
:020000040000fa
:0400c0001204000026
:020000040000fa
:0400c4001204000022
:020000040000fa
:0400c800120400001e
:020000040000fa
:0400cc00120400001a
:020000040000fa
:0400d0001204000016
:020000040000fa
:0400d4001204000012
:020000040000fa
:0400d800120400000e
:020000040000fa
:0400dc00120400000a
:020000040000fa
:0400e0001204000006
:020000040000fa
:0400e4001204000002
:020000040000fa
:0400e80012040000fe
:020000040000fa
:0400ec0012040000fa
:020000040000fa
:0400f00012040000f6
:020000040000fa
:0400f40012040000f2
:020000040000fa
:0400f80012040000ee
:020000040000fa
:0400fc0012040000ea
:020000040000fa
:0401000012040000e5
:020000040000fa
:0401040012040000e1
:020000040000fa
:0401080012040000dd
:020000040000fa
:04010c0012040000d9
:020000040000fa
:0401100012040000d5
:020000040000fa
:0401140012040000d1
:020000040000fa
:0401180012040000cd
:020000040000fa
:04011c0012040000c9
:020000040000fa
:0401200012040000c5
:020000040000fa
:0401240012040000c1
:020000040000fa
:0401280012040000bd
:020000040000fa
:04012c0012040000b9
:020000040000fa
:0401300012040000b5
:020000040000fa
:0401340012040000b1
:020000040000fa
:0401380012040000ad
:020000040000fa
:04013c0012040000a9
:020000040000fa
:0401400012040000a5
:020000040000fa
:0401440012040000a1
:020000040000fa
:04014800120400009d
:020000040000fa
:04014c001204000099
:020000040000fa
:040150001204000095
:020000040000fa
:040154001204000091
:020000040000fa
:04015800120400008d
:020000040000fa
:04015c001204000089
:020000040000fa
:040160001204000085
:020000040000fa
:040164001204000081
:020000040000fa
:04016800120400007d
:020000040000fa
:04016c001204000079
:020000040000fa
:040170001204000075
:020000040000fa
:040174001204000071
:020000040000fa
:04017800120400006d
:020000040000fa
:04017c001204000069
:020000040000fa
:040180001204000065
:020000040000fa
:040184001204000061
:020000040000fa
:04018800120400005d
:020000040000fa
:04018c001204000059
:020000040000fa
:040190001204000055
:020000040000fa
:040194001204000051
:020000040000fa
:04019800120400004d
:020000040000fa
:04019c001204000049
:020000040000fa
:0401a0001204000045
:020000040000fa
:0401a4001204000041
:020000040000fa
:0401a800120400003d
:020000040000fa
:0401ac001204000039
:020000040000fa
:0401b0001204000035
:020000040000fa
:0401b4001204000031
:020000040000fa
:0401b800120400002d
:020000040000fa
:0401bc001204000029
:020000040000fa
:0401c0001204000025
:020000040000fa
:0401c4001204000021
:020000040000fa
:0401c800120400001d
:020000040000fa
:0401cc001204000019
:020000040000fa
:0401d0001204000015
:020000040000fa
:0401d4001204000011
:020000040000fa
:0401d800120400000d
:020000040000fa
:0401dc001204000009
:020000040000fa
:0401e0001204000005
:020000040000fa
:0401e4001204000001
:020000040000fa
:0401e80012040000fd
:020000040000fa
:0401ec0012040000f9
:020000040000fa
:0401f00012040000f5
:020000040000fa
:0401f40012040000f1
:020000040000fa
:0401f80012040000ed
:020000040000fa
:0401fc0012040000e9
:020000040000fa
:0402080012040000dc
:020000040000fa
:04020c007e0300006d
:020000040000fa
:04021000ca0300001d
:020000040000fa
:04021400a203000041
:020000040000fa
:04021800ee030000f1
:020000040000fa
:04021c0012040000c8
:020000040000fa
:0402200012040000c4
:020000040000fa
:0402240012040000c0
:020000040000fa
:0402280012040000bc
:020000040000fa
:04022c0012040000b8
:020000040000fa
:0402300012040000b4
:020000040000fa
:040234004003000083
:020000040000fa
:0402380012040000ac
:020000040000fa
:04023c0012040000a8
:020000040000fa
:0402400012040000a4
:020000040000fa
:0402440012040000a0
:020000040000fa
:04024800120400009c
:020000040000fa
:04024c001204000098
:020000040000fa
:040250001204000094
:020000040000fa
:040254001204000090
:020000040000fa
:04025800120400008c
:020000040000fa
:04025c001204000088
:020000040000fa
:040260001204000084
:020000040000fa
:040264001204000080
:020000040000fa
:04026800120400007c
:020000040000fa
:04026c001204000078
:020000040000fa
:040270001204000074
:020000040000fa
:040274001204000070
:020000040000fa
:04027800120400006c
:020000040000fa
:04027c001204000068
:020000040000fa
:040280001204000064
:020000040000fa
:040284001204000060
:020000040000fa
:04028800120400005c
:020000040000fa
:04028c001204000058
:020000040000fa
:040290001204000054
:020000040000fa
:040294001204000050
:020000040000fa
:04029800120400004c
:020000040000fa
:04029c001204000048
:020000040000fa
:0402a0001204000044
:020000040000fa
:0402a4001204000040
:020000040000fa
:0402a800120400003c
:020000040000fa
:0402ac001204000038
:020000040000fa
:0402b0001204000034
:020000040000fa
:0402b4001204000030
:020000040000fa
:0402b800120400002c
:020000040000fa
:0402bc001204000028
:020000040000fa
:0402c0001204000024
:020000040000fa
:0402c4001204000020
:020000040000fa
:0402c800120400001c
:020000040000fa
:0402cc001204000018
:020000040000fa
:0402d0001204000014
:020000040000fa
:0402d4001204000010
:020000040000fa
:0402d800120400000c
:020000040000fa
:0402dc001204000008
:020000040000fa
:0402e0001204000004
:020000040000fa
:0402e4001204000000
:020000040000fa
:0402e80012040000fc
:020000040000fa
:0402ec0012040000f8
:020000040000fa
:0402f00012040000f4
:020000040000fa
:0402f40012040000f0
:020000040000fa
:0402f80012040000ec
:020000040000fa
:0402fc0012040000e8
:020000040000fa
:0403000012040000e3
:020000040000fa
:0403040012040000df
:020000040000fa
:0403080012040000db
:020000040000fa
:04030c0012040000d7
:020000040000fa
:0403100012040000d3
:020000040000fa
:0403140012040000cf
:020000040000fa
:0403180012040000cb
:020000040000fa
:04031c0012040000c7
:020000040000fa
:0403200012040000c3
:020000040000fa
:0403240012040000bf
:020000040000fa
:0403280012040000bb
:020000040000fa
:04032c0012040000b7
:020000040000fa
:0403300012040000b3
:020000040000fa
:0403340012040000af
:020000040000fa
:0403380012040000ab
:020000040000fa
:04033c0012040000a7
:020000040000fa
:0403400012040000a3
:020000040000fa
:04034400120400009f
:020000040000fa
:04034800120400009b
:020000040000fa
:04034c001204000097
:020000040000fa
:040350001204000093
:020000040000fa
:04035400120400008f
:020000040000fa
:04035800120400008b
:020000040000fa
:04035c001204000087
:020000040000fa
:040360001204000083
:020000040000fa
:04036400120400007f
:020000040000fa
:04036800120400007b
:020000040000fa
:04036c001204000077
:020000040000fa
:040370001204000073
:020000040000fa
:04037400120400006f
:020000040000fa
:04037800120400006b
:020000040000fa
:04037c001204000067
:020000040000fa
:040380001204000063
:020000040000fa
:04038400120400005f
:020000040000fa
:04038800120400005b
:020000040000fa
:04038c001204000057
:020000040000fa
:040390001204000053
:020000040000fa
:04039400120400004f
:020000040000fa
:04039800120400004b
:020000040000fa
:04039c001204000047
:020000040000fa
:0403a0001204000043
:020000040000fa
:0403a400120400003f
:020000040000fa
:0403a800120400003b
:020000040000fa
:0403ac001204000037
:020000040000fa
:0403b0001204000033
:020000040000fa
:0403b400120400002f
:020000040000fa
:0403b800120400002b
:020000040000fa
:0403bc001204000027
:020000040000fa
:0403c0001204000023
:020000040000fa
:0403c400120400001f
:020000040000fa
:0403c800120400001b
:020000040000fa
:0403cc001204000017
:020000040000fa
:0403d0001204000013
:020000040000fa
:0403d400120400000f
:020000040000fa
:0403d800120400000b
:020000040000fa
:0403dc001204000007
:020000040000fa
:0403e0001204000003
:020000040000fa
:0403e40012040000ff
:020000040000fa
:0403e80012040000fb
:020000040000fa
:0403ec0012040000f7
:020000040000fa
:0403f00012040000f3
:020000040000fa
:0403f40012040000ef
:020000040000fa
:0403f80012040000eb
:020000040000fa
:0403fc0012040000e7
:020000040000fa
:10040000efc421000e7f22000e01880000000000d2
:10041000000020000000e000020032000001200087
:100420002002880014000700200107000000e000ff
:1004300003003a0080db26000100200002003700a4
:100440000000200001002000810f70000100320038
:1004500014000700000020000000e000020032004d
:1004600000000200000000001a7f020000000000ef
:100470000040da000000fe004440a90020092000ee
:100480000000e000030032000020200090018800fe
:100490004440a800000006008a1f78008b1f7800e7
:1004a00000000600a1028800800478000000eb0034
:1004b0001f003700e284440054a0b4009905ba003c
:1004c000e284440054a0b4009906ba00e2844400d7
:1004d00054a0b4000006eb00476fde00fd07b20039
:1004e000ae018800636ce10003003a00eaff0700f8
:1004f0000000eb000e003700606ce10008003a00dd
:10050000004deb000a05e800020039003420ec0041
:100510000af0a0008b05e900f9ff3e000400370057
:100520006168e100010032000086eb000b0007006b
:1005300019c7ba001905ba000e04e00003003a001a
:100540000a00e000dbff3a0000000600fe07b200f0
:10055000ae0288008a047800f5ff37000cd0a300b3
:10056000e20f4d001c00390089027800354dba00b9
:100570000a05e800020039003420ec000af0a0006f
:100580008b05e9000f003200254dba000a05e8008e
:10059000020039003420ec000af0a0008b05e900cd
:1005a000080032000c00e0000600320015cdba0051
:1005b0000a05e800020039003420ec000af0a0002f
:1005c0008b05e9008984e80054a0b4000b00e0002a
:1005d000e2ff3a00000006009902ba00055d7800cb
:1005e0008b05e900f7ff3200c82ade00055d7800c0
:1005f0008b05e900f3ff32000c00e000f1ff320050
:1006000019ddba00eeff3700507004000000000052
:1006100096700400000000002a7204000000000030
:10062000fa7d040000000000f681040000000000d4
:100630002c7c040000000000506804000000000052
:10064000666904000000000026310400000000007c
:1006500024580400000000008e7e0400000000000a
:10066000447f040000000000ea15040000000000c0
:100670009c10040000000000160c040000000000a4
:100680003600f800809fbe00829fbe00849fbe009f
:10069000869fbe003200f8003400f80010002000f1
:1006a000a001880000202000900188000000fa00ce
:1006b0008460a900ae2a0200000000000000e000f3
:1006c00004003200891aa800a48002000000000083
:1006d00000000000893aa8000080fa003400f90008
:1006e0003200f9004f03be004f02be004f01be00b2
:1006f0004f00be003600f900004006003600f8004a
:10070000809fbe00829fbe00849fbe00869fbe0069
:100710000000fa00905aa8008020a9000000eb0019
:10072000b0810200000000000080fa004f03be000c
:100730004f02be004f01be004f00be003600f90060
:10074000004006003600f800809fbe00829fbe0079
:10075000849fbe00869fbe000000fa00907aa80029
:10076000bc810200000000008040a90010002000b1
:10077000b0810200000000000080fa004f03be00bc
:100780004f02be004f01be004f00be003600f90010
:10079000004006003600f800809fbe00829fbe0029
:1007a000849fbe00869fbe000000fa00909aa800b9
:1007b0008060a90020002000b0810200000000003d
:1007c0000080fa004f03be004f02be004f01be0082
:1007d0004f00be003600f900004006003600f80069
:1007e000809fbe00829fbe00849fbe00869fbe0089
:1007f0000000fa0090baa8008080a9003000200014
:10080000b0810200000000000080fa004f03be002b
:100810004f02be004f01be004f00be003600f9007f
:10082000004006000040da000000fe000a00fa0066
:1008300011002000b1bf9f00c0bf9f006a80570019
:100840000c0d07004fb897000080fa00000006006a
:100850000800fa0010079800210798003207980056
:10086000be009000010f780009003700a55aa800cb
:100870002e00900010407800ae0090008100e8004b
:1008800021079800107d0200000000001e0fe90003
:100890001e0078000000e000f4ff3a00a57aa800ee
:1008a0003e0090000080fa000000060000000500f5
:1008b000f4ff2f00b50237004f89de008201780077
:1008c000cd0237006011b800db0237006022b800ab
:1008d000060220000000d0008180d2000482d200f5
:1008e0008582d2000000a0000202520083825a00da
:1008f000030031000202420083824a000000a1008e
:100900000603e900f3ff3a000000060007f827009d
:10091000078361000638e10004003a00f707200071
:10092000878361008703710001003a0003f0a20091
:10093000889fbe008a9fbe008c9fbe00470ade00d3
:100940000480a100c71ade000580a100070028006e
:100950000785600087856100f70f20000720e10010
:100960009e0032000728e1009c003200010678005a
:100970000400e000b4003200f70720008780600028
:100980000170a0000500e000c0003200f707200061
:10099000878161000370a000050652000f003a0035
:1009a0000b50e1000b0032000308e10002003a00a6
:1009b0000200e1007e0032000204500083845800ef
:1009c000040031000001fd008101fd008402fd00f2
:1009d0008a05fd006044b800210037000520e100d1
:1009e00005003d000001fd008101fd008402fd00c5
:1009f0008a05fd00050652007a60e1000500350019
:100a00000170a1004722dd00848070008a807000a0
:100a1000630037006044b800ef02660007ff2f0054
:100a2000070666000500e00006003400f0831200af
:100a30008714dd000511de00071bdd0006017100d3
:100a40008519de007060e1000500350009047800ba
:100a500082047800030178008001eb0070065600e4
:100a60000b50e10003003a00020040008380480080
:100a70000400370060041400e0841c0002005800e9
:100a8000838058000188a300060032008100d10055
:100a90000080d3008984d3000884d3000402e800d6
:100aa000270037000178a30025003a000100e0008c
:100ab000030032008186cf00698656000a003700a5
:100ac0008c0020000000e00004003a0009007800db
:100ad000880478000004eb00700252008086cf008a
:100ae0000d0646000c06e9007060e10006003500c6
:100af0008000780009007800880478000004eb008a
:100b000070065600700252000c00e0000c00340029
:100b10008c08dd00f00316000703de0086807000fd
:100b20000c00dd00074bde00060070008c4cdd0081
:100b30000743de00868474000c44dd000c02520082
:100b40006120e100200035006101600007002800fd
:100b500087816400f7ff2700878364000703740020
:100b60000300e0000600320082037300040032003c
:100b70000000e800e08048000188a3000e003a0071
:100b8000f70f20000720e1004a003d000170a1009e
:100b90004722dd00810072008a8070000000be00e4
:100ba0004f06be004f05be004f04be000000060009
:100bb0006000b800faff37008100d1000080d30048
:100bc0000402e800eeff3700040178008901740098
:100bd0001b0107008a807000f1ff37004201070007
:100be000070278000001fd008101fd003e010700c1
:100bf00087027800850372000778a30004003200a2
:100c00000001fd008101fd0051010700e4ff3700f4
:100c1000850362000768a300080032000b50e10062
:100c200003003200f0ff2f00f1ff2700dcff370048
:100c30000001fd008101fd00d9ff37000468a30019
:100c4000d7ff3200faff3700f8ff270088836000e3
:100c50000b003a000000e00009003a008303640042
:100c600082837300020032000200be00ccff370016
:100c70000b50e100ceff3a000200be00c8ff370073
:100c800014002000810064003eff3700f8ff2700b9
:100c90008883610004003a000200e00002003a008c
:100ca0008c007800beff370015002000830164002f
:100cb00039ff370001f8270000002000810075008f
:100cc000b7ff3700889fbe008a9fbe008c9fbe0082
:100cd0001b0020000202be000586680006002800f6
:100ce000060666004709de00f20fb20082003200fd
:100cf0000243e80080003200c729de00f30fb20093
:100d00007d0032000343e8007b003200f107b200af
:100d10000170a000f507b2000570a000c708dd0053
:100d20004903de00868070004700dd00c72add0031
:100d30004923de00868272004722dd000305510050
:100d40000403500085835800030031000000400078
:100d5000818048000a05e9008c1f78008a9fbe0048
:100d600004005000858058000402420085824a0039
:100d700000004000818048000005eb000004be0038
:100d80006033b8000406be000d48e1005600310093
:100d9000110009004dccd8000c01b8000d02b800bc
:100da0008481410060824a008283530003045c0016
:100db00084845c0060055d000a00e00025003a00c4
:100dc000800578000d40e10049003100880078007e
:100dd00007007800110009004d88d8000c01b80008
:100de0000d02b8008481410060824a006003110056
:100df00083835b0004045c00e0845c000900e00085
:100e000021003a004f01be000300e0002b00320039
:100e1000e3016000070673008c817100010032005d
:100e2000640070004200de004e5edd000c007000c9
:100e3000c258de0001e0a000ce000700cf0178001c
:100e4000818071004f06be004f05be004f04be00fa
:100e5000000006008c8343000d044c00e0844c002d
:100e600060054d000000e9000a00e000d4ff3200f8
:100e70008c8343000d044c00e0844c0060054d0061
:100e80000000e900ceff37000c0343008d834b00c8
:100e900060044c00e0844c000000e9000900e00020
:100ea000d8ff32000c0343008d834b0060044c00dc
:100eb000e0844c000000e900d2ff37004200de0071
:100ec0004e5edd000c007000c258de0001e0a000a4
:100ed000cf0178000300e000daff3200600010006c
:100ee000e0801800d7ff3700f0ff2f00aaff37007f
:100ef000f0ff2f00b9ff37000404be007a0007009e
:100f0000870678000004fd008104fd0076000700dc
:100f1000078366000678a300030032000960a7007b
:100f20000800be002c0037000d78a300020032003c
:100f30000800be00280037000778a30026003a000a
:100f400001f0a10009f0a1000668a300030032002f
:100f5000f1ff2700f0ff2f00baff37000d68a30054
:100f6000030032000800be008c807000b5ff37001f
:100f70000768a30007003a000648a30003003200f8
:100f8000f1ff2700f0ff2f00aeff37000d48a30050
:100f9000030032006000b8008c807000a9ff3700a9
:100fa0000748a3000400320001f8270000002000d9
:100fb0008c807000a3ff3700c10007000004fd0013
:100fc0008104fd0002057800bd0007000802be0094
:100fd0008a01780059ff37000160a000120220004a
:100fe000f2d6880097ff37000100e00012003200bf
:100ff0000500e00010003200889fbe008a9fbe00fe
:101000008c9fbe000006eb0001f8a3000300320035
:1010100060001000e08018000cf0a00005f8a300ac
:101020000300320060021200e0821a000cf0a200fd
:101030008005eb0041ff37006000b80002000500aa
:101040000100e00026003200610111007810e1008b
:1010500023003c006022b8007010e100040035005d
:1010600080027800010078008000eb0070015100e0
:101070000200e0000900340070031100062add00c0
:10108000822ade008603dd00878272000200de0015
:10109000860bdd00070070008208de00848171008d
:1010a000f4ff27000482620084817100040028009c
:1010b000848262006102600005f0a6000000060064
:1010c00004827100070032000000e800e080480060
:1010d000000006000002be006000b800efff37000d
:1010e0006000b800000006002700200001f0a70003
:1010f00017002000470bde00f60fb200040032009c
:101100000643e8000a0032004702b3000000060070
:1011100001037800f607b2000603700002003a00ef
:101120000703b300000006008702b30000000600ba
:1011300001037800f607b2000603700002003200d7
:101140000770a000000006000760a0000000060075
:101150000478a300040032000578a30003003200e5
:101160000168a30001003a000200be000160a00077
:101170000000060081017000270032008002eb00b1
:1011800001f8a3000300320060001000e0801800a6
:1011900015002000f4072000020242002000340065
:1011a000f7032000870360000604200000036300ab
:1011b00002082000000161004700de00c909dd00cf
:1011c00000807100c708de000600e0000800320061
:1011d00087037100060032001000b0000180b000eb
:1011e0000188a30002003200c108de000402e8000a
:1011f000f107b200f30f20000320e10003003d00df
:101200004722dd00810072002900370001f8270025
:101210000000eb00260037006000b8000000060068
:10122000680212007f20e100020034006000b80074
:101230001f0037006011b8007020e1000400350085
:1012400080017800010078008000eb0070025200fd
:101250000400e00009003400f00312000719dd006b
:101260008419de000703dd00868171000400de00c2
:10127000070bdd00060070008408de00f7ff270082
:101280008383630087037100060028000303630063
:10129000070032000700e00003003a00610160002f
:1012a00002817300020032001000b0000180b00023
:1012b0000500a6000000060001f0a00000000600e6
:1012c0004f0ade004709de00f107b200f20fb2005c
:1012d0000b003200f207b1000170a000c708dd006a
:1012e000c901de00838070004700dd000400a60015
:1012f0000000060060001000e080180000000600fa
:10130000810f700001003a00000006008182cf00ca
:101310000500e00010003e008082cf00ee82420017
:101320007028e1000400390007003e0080007800ca
:101330000000eb000e003700708312008600de0014
:101340000500dd000a003700708352008600dd00d2
:101350000000eb0006003700e28252008508dd0045
:10136000708312000603de00868070000500dd0039
:101370007507b0000501ea000400a60000000600a1
:1013800060001000e080180000000600889fbe008a
:101390008a9fbe00841f78007c0007004f00780001
:1013a00011003300f0ff2f00838f6c0006003b001c
:1013b000040565000a00a7000800370009f0a60030
:1013c0001000200008003700820f5400838f5c005b
:1013d000030039001000200001003e000000200042
:1013e00009f0a7000000ea004f05be004f04be0050
:1013f0000000e00000000600881f78000304780069
:101400000300e00007003d0060001000e0801800cd
:1014100060011900e081190002003b0001f02d007d
:10142000030037000400070008f0a70001f0a00047
:101430004f04780000000600889fbe008a9fbe000f
:1014400000827000040271000482710026003200e4
:101450000004be000200be006011b8006b0920004d
:10146000950220000182cf000a0039000541b10039
:101470000082cf00070039000541b1000982cf008a
:10148000040039000541b1000882cf000100390095
:101490000541b10005425200120032000a003b0033
:1014a00082817100610164008100d1000080d3005d
:1014b0008984d3000884d3008b05e8000442e80047
:1014c000f7ff3a00070037000804440089844c0005
:1014d00000004800818048008b05e9000442e900d3
:1014e000f9ff3a00030007004f05be004f04be009d
:1014f0000000060081002000618055000b003d00c7
:101500000b00200061fe2f000100e1001d003400ef
:1015100082817100610164008904d1000884d300d4
:101520000000e800faff3a0071002000610064004a
:1015300003007000020060000900320061044400f2
:10154000e0844c000988a500050032008b05e80006
:101550006808e10002003a008904d1000884d30041
:10156000f20f20000258e10005003d00c75ddd00dc
:10157000f907b200898075000800780000000600b5
:101580000bf827008b007800000005000004be0067
:10159000060007000003be000405be000200be00f6
:1015a00002000700844f750000000600c70ade0035
:1015b000f107b200f50fb20008003200e1cf42009f
:1015c000020032000170a00024000500810f7000ad
:1015d000010032000408050044000500810f70007e
:1015e00002003a00140005008502e90000004000f6
:1015f00081c04800fcff3b000170a00024000500f2
:101600000000fa0068815700cfb8970050df8000d3
:1016100010007800a70207000080fa000000060012
:10162000cb00070023010700d4010700fc010700dd
:10163000550107001e030700c902370001003700eb
:101640000201e9000200e0000500320030427800ab
:10165000b1417800834f5200f9ff3200010037009a
:10166000000005000480fb008381fb0003005000a4
:10167000000006008001780002003700b1597800b0
:101680000201e9000200e000fcff3a000000060051
:10169000889fbe008a9fbe00800478000200e000a0
:1016a0005b00320001407800814c78008281440068
:1016b000f1f99f00e20f5100550036009144980067
:1016c000a1449800e1f99f00d1f99f00e60f510075
:1016d0004f003600b1449800c1f99f00e80f510057
:1016e0004b0036000905ea00630565000a844400e2
:1016f0000a055100c1ff2f00010565000080fb00b5
:101700008000eb0012102000131020007a0907005f
:10171000008cbe000a01440060b99f0071b99f00af
:10172000e80f55003a003600200498003104980074
:10173000400498005104980020b99f0031b99f00df
:1017400040b99f0051b99f00f80f55003000360096
:101750006004980071049800000c9800110c980027
:10176000200c9800310c9800400c9800510c980007
:1017700020b19f0031b19f0040b19f0051b19f0047
:1017800060b19f0071b19f0000b99f0011b99f0027
:101790006401640078014100020444000205550020
:1017a0006011b8000203be000002be000403be00c8
:1017b0006022b80000007200818072000201730094
:1017c0008381730010003700009cbe000294be00ad
:1017d0004004980051049800620498007304980033
:1017e000000c9800110c9800220c9800330c980003
:1017f000400c9800510c9800620c9800730c9800f3
:101800000a02b1000802b000ff0f5500eeff3e00d3
:10181000090078004f05be004f04be00000006001e
:1018200051df800091007800860737000000060035
:1018300000bf210000000600fdff070070df8800e8
:1018400060df880000000600881f78000004780030
:101850000800780039080700080078004f04780075
:10186000000006004400fa00889fbe008a1f78002e
:101870000004be000205780094bf9f00a5bf9f0032
:10188000b6bf9f00c7bf9f000000eb00c09f9f0036
:10189000a8af9f00d89f9f000080eb00b0af9f00d3
:1018a0006022b8006033b80060fb2f000f004000da
:1018b000650707001fba9700afba97003fbb9700b4
:1018c000cfbb9700120020008a00780060fb2f0039
:1018d0000f004000250507000900e0000600320067
:1018e0003fb29700afaa970004824200df9a9700a8
:1018f00005025200840c44004f0578004f04be00de
:101900000080fa0000000600f4ff2f00f5ff2f0012
:101910000403be00d3ff37006022b8000600200099
:1019200007002800cfff3700f4ff2f00f5ff2f003e
:101930006033b800cbff370004002000050028000a
:101940006033b800c7ff3700f3ff3700eeff370002
:10195000ec874700889fbe008a9fbe008c9fbe0018
:101960008e1f7800000678000104780018079000a8
:101970002805900098067800cdb79f00b805900024
:101980003202be002203be000400be000601be00fb
:101990004f18de006011b8008000eb00d0b79f0048
:1019a000e1b79f00f2b79f0083bf9f0080047800db
:1019b0000900e000060032006000b8006011b800c5
:1019c000040250008582580006035900878359009d
:1019d0000e00e000020035000d10a100cdb79f0001
:1019e0000900e00005003a004fb097000028a3006e
:1019f00002003a000038a300020032008a00e90029
:101a0000010037008a007800f8815700a20020000a
:101a100008007800860007000900e00003003a0093
:101a2000cfb097000128a300080032000000e900b1
:101a300000814500b1c2b3000900e000010032009e
:101a4000d1c2b30001497800050037000138a30076
:101a5000030032000000e90001c2b3008175780084
:101a6000480190000201e90000015100808045001a
:101a70004fb297008a0178000c00780057020700e7
:101a80009c0090000188a3000400320098009000a0
:101a9000810f500001003d00010078004f077800e1
:101aa0004f06be004f05be004f04be00cf00b10080
:101ab000000006000200fa00889fbe008a9fbe0058
:101ac0008005780001047800020078001801900079
:101ad0002805900098007800b1bf9f00b8049000de
:101ae0000200e000020035000110a100b1bf9f001c
:101af000ea815700820020008a0078003002be0090
:101b00002003be0008007800490007003fb9970095
:101b1000f0006100030032000000e90001c3b300df
:101b2000817478003fb99700e8006100030032003b
:101b30000000e90001c2b300817478004801900000
:101b40000201e90000015100808044003fba970083
:101b50008a0178000b007800200207009b009000ab
:101b60000188a3000400320098009000810f50000b
:101b700001003d00010078004f05be004f04be008b
:101b80000080fa0000000600ea874700889fbe0038
:101b90008a9fbe008e1f7800000478000300780042
:101ba0007287570084e2260055c72600049fbe00b6
:101bb000c3962200030f78006c875700004feb009c
:101bc00011059000a1049000910578000200e0004a
:101bd00002003200020778000100370072875700c8
:101be0000000e00002003a000e00780088070700bd
:101bf0000a00e000030035008a0f500001003600a3
:101c00000a0078000b027800890178000001780052
:101c10008e00780008007800f00107004f07780078
:101c20004f05be004f04be00af00b100000006002b
:101c3000f4874700889fbe008a9fbe008c9fbe002d
:101c40008e1f78000605be000404be0081bf9f0001
:101c500082b79f00f3b79f00b0009000e1b79f00ec
:101c60001301780092b79f0090069000400090000a
:101c70000000e900000678000d00e00001003d00d2
:101c80001d0020008040eb00efb1970081717800cb
:101c90001e0020001f0037000c06e9000fb097005f
:101ca000cf80de006109b900a0b79f00b1b79f00e7
:101cb000c2b79f00d3b79f000203be000002be0060
:101cc0000800be000a01be00b10807000007780046
:101cd0000e4078000043b000efb0970080707e00a7
:101ce0008d06e9000fb997000201e90082bf9f004d
:101cf0002fb29700bfb297004fb39700dfb39700a2
:101d00000800be000a01be009a0807000205be00d6
:101d10000004be000c00e0000d003400e00f540091
:101d2000e08f5c00e00f5d00e08f5d00daff3a00bd
:101d30000d00e000d8ff3c008fb997000300e000e1
:101d4000030034001fb097000018a300d2ff3a0030
:101d50000e00e00002003a00ffb097001140a10021
:101d60000c0078004f0778004f06be004f05be00fc
:101d70004f04be004f01b100000006000200fa004f
:101d8000889fbe008a9fbe0000057800010478008d
:101d90000200780018019000a804900098007800d4
:101da000b1bf9f00b80590000200e00002003500be
:101db0000110a100b1bf9f00ea815700a2002000de
:101dc000890078003002be002003be0008007800c1
:101dd00097ff0700480190000201e900000151004f
:101de000808045003fba9700890178000a0078009a
:101df0007a0107009a0090000188a30004003200d5
:101e000098009000810f500001003d000100780013
:101e10004f05be004f04be000080fa00000006001f
:101e2000fa874700889fbe008a9fbe008c9fbe0035
:101e30008e1f780080047800010478008205780005
:101e4000180190002805900018077800b80090004d
:101e50000200e000020035000e10a1000100370072
:101e60001200200070006700e0b79f0009003200f8
:101e70003b02be002b03be00e00f5200e08f5a0071
:101e8000e00f5b00e08f5b00020032008a86e90011
:101e9000010037008a067800e8026700f5b79f0066
:101ea000010032008d06e9003b02be002b03be009c
:101eb000e4af9f00f5af9f0086b79f0097b79f00e4
:101ec000480690000c06e9000040eb0080707e00a0
:101ed000efb297007fb29700890378008104780001
:101ee000d8af9f00020478008bbf9f008a0578005e
:101ef000034578002a0037000c06e9006fab970015
:101f00006f006300e90f500002003c000003b000c6
:101f1000010037007005b0000a03fb001604b10091
:101f2000f90f53000c003e00000378000650a0009b
:101f30001606b100f90f530007003e00b4b79f002a
:101f4000a5b79f00c7b79f00da060700cfb3970079
:101f5000afb297003fb2970080747e000804e9009a
:101f60008d06e9006fa89700ffa897000fb19700b2
:101f70009fb19700460020008301d1000281d30069
:101f80008180d3000080d3000603e900faff3a0005
:101f9000e0af9f00f1af9f0082b79f0093b79f0013
:101fa000e10f56000f0034006fa89700ffa89700bc
:101fb0000fb197009fb19700e00f5000e08f5800dd
:101fc000e00f5900e08f5900cbff3a000800e00015
:101fd000c9ff3c000d00e000020034000e18a30011
:101fe000c5ff3a0089007800f4b79f0087047800a5
:101ff0005fac97008a4178000b0578008fbd970091
:102000000500e000100032003b02be002b03be00c2
:10201000e4af9f00f5af9f0086b79f0097b79f0082
:10202000e00f5200e08f5a00e00f5b00e08f5b0092
:10203000050032000c06e90083707e000c06e90002
:1020400000c3b30080707e00ffb297000500e0007f
:10205000030032000c06e90000c2b30080707e006d
:10206000480190000201e9000c0151008c80400001
:102070000e0278008a01780009007800d700070076
:10208000990090000188a30004003200980090009d
:10209000810f500001003d00010078004f077800db
:1020a0004f06be004f05be004f04be00af01b10099
:1020b000000006000200fa00881f78000004780083
:1020c000e2bf9f0064815700080078008202070089
:1020d000980090000148a300010032000080eb004e
:1020e0004f0478000080fa0000000600889fbe00c0
:1020f000000478004800900082047800808f54002b
:102100000100360080047800090178005800900032
:1021100058fd070058009000090040005004980046
:10212000c800900089845000490498000048eb00e2
:102130004f04be000000060010007800c4f937000c
:10214000900190000388a30001003200e7ff3700f0
:102150000348a30001003a00f7ff07000000060053
:1021600084082000848f50001d0032000d003c00c8
:1021700014082000848f50002700320002003c0029
:10218000040820000400370024082000848f500039
:102190003400320044082000848f500043003a008d
:1021a00036003700040a2000848f500027003200d8
:1021b00004003c0004092000848f50003b003a00da
:1021c00028003700020c2000828f50002f003200c0
:1021d000020f2000828f500034003a002b0037009d
:1021e0009380e9000200e0000500320081097800d8
:1021f0001102fb00cfa2de00612bb90028003700de
:1022000081097800114278000482fb008002eb0013
:102210006033b8002200370013027800e400520057
:102220000200e00005003200810978001102be00c2
:102230004fabde0086037800190037008109780073
:102240001102be006033b800150037009380e9002a
:102250008109780011027800cfa2de00612bb9005d
:102260000f00370093027800e8805200810978005f
:102270003102be002103be00090037009380e9004f
:102280000200e00002003200f1ff37009380e90015
:1022900081097800110278008002eb006033b800f9
:1022a0000498be000690be00100005000000050066
:1022b00044082000848f50002500320008003c00b4
:1022c00014082000848f50001400320024082000dd
:1022d000848f500024003200040820000c003700d6
:1022e00004092000848f50001f00320004003c00cd
:1022f00084082000848f500024003a000e0037002c
:10230000040a2000848f500011003200040c2000c9
:10231000848f50001d003a000d0037009380e900c3
:10232000810978009100780001087800cf91de00e3
:102330008288be00140037009380e900810978008c
:102340009100780001087800824878000e0037007c
:102350009380e900810978009100780001087800f5
:1023600082087800080037009380e900810978002e
:1023700091007800010878006112b900612bb90062
:102380008498be008690be00100005000000050085
:10239000889fbe0000047800480090008204780006
:1023a000808f540001003600800478000901780015
:1023b00058009000affc0700580090000900400052
:1023c00050049800c8009000898450004904980087
:1023d0000048eb004f04be0000000600f2874700f3
:1023e000889fbe008a9fbe008c9fbe008e1f780013
:1023f00080047800010578000204780083057800e5
:102400006107620002003a008b0f54000800390097
:10241000080178008a0078000900780048ff07006a
:102420008b0f540002003900880578001e00370029
:10243000088655000c017800f00f560001003600a8
:1024400002012000010220007e80570090fc07005e
:102450008c0678000500370002012000fe8057003e
:102460000900780036ff0700f0865600ef8f56000f
:10247000f9ff3e004461de0000ff2f000091b9002b
:1024800002014600fe805700090078002cff07007b
:102490000e00e00004003a00080178008a0078008d
:1024a0000900780026ff07000b0078004f0778002e
:1024b0004f06be004f05be004f04be002f01b10005
:1024c00000000600000005000000050000000500f7
:1024d000000178000040eb008080fb00818040001c
:1024e00043c3210063c278000404e00003003a0003
:1024f00050c3210060c078000000060092017800ff
:10250000934f520004003a0050c3210060c078008d
:102510000309e800010037000040e800ea4f5000de
:10252000edff360000000600f6874700889fbe00da
:102530008a9fbe008c9fbe008e1f78000005780029
:102540000104780083057800040678000000eb00a1
:10255000c0b79f008080eb00d1b79f00e0b79f001d
:10256000f2b79f000008200080bf9f00980078000d
:10257000010078008004eb00010037008904e800c6
:10258000304178000204e0000300320053c2b3007f
:10259000834f5100f9ff3a000900e00004003200c7
:1025a000090178000a007800e5fe0700188c440055
:1025b0001807780050c2b3009e4f10003f013a0048
:1025c0000e07e8000e0c780010003700cfb097001f
:1025d0000100a0000b003700cfb097000110a00051
:1025e00008003700cfb097000120a0000500370099
:1025f000cfb097000130a00002003700cfb09700a5
:102600000140a000c1b79f00000ce800180078004e
:1026100090407800b2c2b30082cf5000f1ff320088
:1026200007003c0002c2b30082cf5000f0ff32002e
:1026300032c2b30082cf500007003a00efff3700ec
:10264000d2c2b30082cf5000e0ff320002c3b30019
:1026500082cf5000e0ff3200a2c2b30082cf500010
:102660000d003a00000ce8001c80e900000e780024
:1026700010007800e0b79f000000e0000f003d0070
:10268000cfb097000100a200c1b79f000000ea0090
:10269000e0b79f000900370084010700e0b79f0002
:1026a00001003700000ce800180078009000fb00e3
:1026b0000103b100e98f5000faff36004fb09700d8
:1026c0000008a300020032000010a100c0b79f0064
:1026d00018007800e1c2b30090cf100016003a0055
:1026e0008000eb00d1b79f000000e800000c7800ec
:1026f000a1c2b30090cf100006003a00000ce80021
:102700001c80e900000e780010007800d0b79f0010
:102710000900370065010700d0b79f0001003700ae
:10272000000ce800180078009000fb000103b100e5
:10273000e98f5000faff36000800780064ff0700b8
:1027400080467800180078001000fb00d2040700d3
:1027500091062000810f50003800320012003c002a
:1027600041062000810f5000340032000a003c0076
:1027700011062000810f5000200032003106200099
:10278000810f5000a000320051022000810f500044
:10279000bc003a00b400370071062000810f5000e1
:1027a000b8003c008800370001072000810f50006e
:1027b0005c00320007003c00e1062000810f500061
:1027c0007a003200f1062000810f5000ad003a007f
:1027d0003900370051072000810f500027003200d8
:1027e00081072000810f5000420032003107200095
:1027f000810f5000a3003a008f0037008d80fb004e
:102800000c01780000fe2f000f004000b404070008
:102810000000e000a800320018007800000ce8007a
:102820009041780002fe2f000f014100f880570010
:102830000a00780024ff07000e0037008d80fb009f
:102840008c0178001200200000fe2f000f004000d5
:1028500043fe07000000e00097003200180ce8007b
:1028600002fe2f000f014100f88057000a00780097
:1028700037fc070080844400900037008d80fb0007
:102880008c0178000001eb0000fe2f000f004000db
:1028900033fe07000000e00087003200180ce8005b
:1028a00002fe2f000f014100f88057000a00780057
:1028b00032fd0700efff37008d80fb008c017800b0
:1028c0000001eb0000fe2f000f00400024fe070077
:1028d0000000e00078003200180ce80002fe2f0033
:1028e0000f014100f88057000a00780071fc0700d2
:1028f000e0ff37008d80fb008c0178000001eb00c9
:1029000000fe2f000f00400015fe07000000e00051
:102910006900320018007800000ce800904178004f
:102920001c0037008c0178000001eb00010f200033
:1029300000fe2f000f00400009fe07000000e0002d
:102940005d003200180ce8000fb097009fb09700b0
:102950002fb19700bfb19700e00f5000e08f5800f3
:10296000e00f5900e08f590009003a00cfb59700f9
:102970006fb49700c0c22100250407000b02780045
:102980008801780000017800c1c2210047003700ab
:1029900083c7b30002fe2f000f014100f8805700eb
:1029a0000a0078001efd0700b2ff37000b814400cb
:1029b0008d80fb008c01780000fe2f000f0040008e
:1029c0003bfe07003c0037008d80fb000c017800c7
:1029d00000fe2f000f004000410407000000e0004f
:1029e0003500320018007800000ce80090417800b3
:1029f00002fe2f000f014100f88057000a00780006
:102a0000b1fe07009bff370000c8b30080cf56001f
:102a100029003a00180ce8001c80e900000e78003c
:102a200010407800e0df9f0013002000e2fd2f003f
:102a30000f0141000800370000c8b30080cf5600e6
:102a40001d003a00180ce8001c80e900000e780018
:102a50008001eb0010017800f88057000a00780030
:102a600049fc070083ff370000c8b30080cf560041
:102a700011003a00180ce8004fb29700efb1970030
:102a8000080037000e0c78000000eb00c0b79f0074
:102a9000e0b79f000080eb00d0b79f000002eb0082
:102aa000840178001200200021c321000a00780070
:102ab0004afe07006fff3700180ce8000900780095
:102ac0004f0778004f06be004f05be004f04be0002
:102ad0006f01b100000006008200fa00889fbe006e
:102ae0008a1f78000005780082047800c13f9f00ab
:102af0000004eb001000370009027800880178001c
:102b0000a2f72f000f01410081f72f008f804000b6
:102b10000a00780084fe070008004000880f50007b
:102b200004003d00b004200050e288000084eb0067
:102b300004003700000478004f3897001004e000cc
:102b4000edff3a00080078004f0578004f04be0002
:102b50000080fa0000000600889fbe000004be004e
:102b60000000eb000800e0001800320018009000a0
:102b70000058a3000d003200d800900068009000bb
:102b8000808f500009003600b80990000001eb006a
:102b9000820078000800780003000100d80090004f
:102ba0000080eb000100e000080032000000eb00b4
:102bb000200c980060049800500498000900e00080
:102bc000020032001800780018f707004f04be001a
:102bd00000000600889fbe000004be000000eb005d
:102be0000800e00025003200180090000058a30003
:102bf00011003200d800900068009000808f5000d3
:102c000009003600b80990000001eb00820078004e
:102c10000800780003000100d80090000080eb005d
:102c20000100e000150032000000eb00200c9800cd
:102c30006004980050049800780a900008109000f2
:102c4000800f5200060031000002520011002000e7
:102c5000cfa2de00612bb900180078005c020700eb
:102c60000000eb0000149800700c98000900e000d0
:102c70000200320018007800ecf607004f04be0096
:102c800000000600800078001000200002022000f2
:102c9000828f500004003200e9805000e48f500021
:102ca000010036000000eb0000000600889fbe0017
:102cb0008a1f7800000578000a047800984478009c
:102cc0000805e8000900fb00eeff07000000e00037
:102cd000f9ff3a00b0c2b30080cf540005003200c3
:102ce000d0c2b3008000eb0080cf540005003a0052
:102cf000020037008000eb000100370011002000c7
:102d00000804e8000000eb00030037006a02b90085
:102d1000020052000003b0003801fb0003fd2f0049
:102d200082814100e98f5100f8ff36000100e00088
:102d300001003a000000ea004f0578004f04be0091
:102d40000000060080007800100020000202200031
:102d5000828f500004003200e9805000e48f500060
:102d6000010036000000eb00000006006f02b0001a
:102d7000889fbe008a9fbe008c9fbe008e1f780079
:102d8000000678000107780082047800d4af9f0025
:102d9000e5af9f00f6af9f0087b79f00400220007d
:102da000800f57007d003e00e10f57007b0032008e
:102db0007c089000bc109000810f5000030031008f
:102dc000b086fb00700e9800030037000c007800fe
:102dd00042020700800678000d007800d9ff070046
:102de0000000e000f2ff3a00b0022000808f5600a1
:102df000050032008002eb0085af9f00d00220006a
:102e0000808f560010003a00dd82b2000df0a7005e
:102e10008d06ea008d06e900cfeede008daf9f0043
:102e20007c089000bc109000810f5000030031001e
:102e3000b086fb00700e9800030037000c0078008d
:102e400026020700800678000e00e0000200320033
:102e5000f00f570042003a0000032000808f560018
:102e60003c003a007c089000bc109000810f50009c
:102e700003003100b086fb00700e9800030037009d
:102e80000c00780015020700800678008d0078009d
:102e90000150a00080072000808f50002a003a00d7
:102ea0007c089000bc109000810f5000030031009e
:102eb000b086fb00700e9800030037000c0078000d
:102ec0000602070080067800a0ae21006d40780061
:102ed0000e012000ef4f50008d0036003c10900096
:102ee0000000e00003003200fc0890008100e900cf
:102ef000710e98000900e0000c0032006022b8005a
:102f00006033b800d4af9f00e5af9f00f6af9f00dd
:102f100087b79f000000e000a10132007c0890000c
:102f20000000e900700e98009d0137006022b80093
:102f30006033b8000c007800c30107006000b800df
:102f40006011b800920137000e00e0009e013200cf
:102f5000170037000e00e00001003a00ae0020002c
:102f6000a0ae21006d4078000080fb008e0f500065
:102f70000f0039003c1090000000e0000300320018
:102f80007c0890000000e900700e98006022b800f4
:102f90006033b8000c007800ab010700600120002e
:102fa00050e288006022b8006033b8007101370039
:102fb000ea0f570056003a000004eb000d007800bd
:102fc0000d0037006a44b9000800400008fd2f00da
:102fd00000044400fc0890003c109000808f5000da
:102fe000030031003180fb00710e980002003700b1
:102ff0000c007800b901070001fd2f00808040001f
:10300000e98f500003003e0081992100810f540098
:10301000ecff3600800678008004eb006055b800b5
:10302000120037001faa9700afaa97003fab970086
:10303000cfab97000004420081844a0002054b0098
:1030400083854b007c089000bc109000810f5000dd
:1030500003003100b086fb00700e980003003700bb
:103060000c0078009d0107008006780005fd2f0008
:103070008582460095af9f00e98f520009013e000e
:1030800090992900919929009299290093992100fa
:103090000040e10001c8e10002d0e10003d8e100f6
:1030a000db003e00a4002000050020006033b800d3
:1030b0000800be000a01be00170407001faa9700ff
:1030c0008002eb006033b80094af9f00a5af9f0073
:1030d000b6af9f00c7af9f000482ea008582ea0076
:1030e0000683ea008783ea00d4b79f00e5b79f0014
:1030f000f6b79f0087bf9f000400e1000588e1004c
:103100000690e1000798e100c6ff3600c0003700d6
:103110000e00e9000e006000030032000004eb0026
:103120000d007800650037007770b9004500de00bb
:103130006700600001ae2100e14078008100fb00e3
:103140000004eb000d007800810478000b003700cc
:103150000944dd0001047400fc0890003c1090005c
:10316000808f5000030031003180fb00710e980009
:10317000020037000c00780058010700a1ae2100c2
:10318000e0c078008180fb008e8f5000030031008a
:10319000f27f2000820f5400edff36008006780099
:1031a000890078008004eb006055b800f4ff2f0020
:1031b000f5ff2f000403be00010078000000e900c5
:1031c000050033008703d1000683d3008582d30036
:1031d0000482d300f9ff37000d00780081067800e3
:1031e000200037000d0178000201e90005003300de
:1031f0000804d0008984d2000a85d2008b85d200d1
:10320000f9ff37000180fb008000eb006011b8007f
:1032100008047000898470000a0571008b857100b4
:10322000fc0890003c109000808f5000030031009b
:103230003180fb00710e98000a0037000c00780006
:1032400094b79f00a5b79f00b6b79f00c7b79f0070
:1032500022010700cfb397003fb39700afb29700aa
:103260001fb29700a1ae2100e0c078000181fb00f1
:103270008e0f5100600031000440e10005c8e100fc
:1032800006d0e10007d8e100d6ff36005a0037002b
:103290000ec4b90008844000fc0890003c10900067
:1032a000808f5000030031003180fb00710e9800c8
:1032b000020037000c00780008010700a1ae2100d1
:1032c000e0c078008180fb008e8f50000300310049
:1032d000b2712000820f5400edff360080067800a6
:1032e0008004eb006055b80098af9f00a9af9f0025
:1032f000baaf9f00cbaf9f0012003700000244001e
:1033000081824c0002034d0083834d0094af9f00e7
:10331000a5af9f00b6af9f00c7af9f007c0890008d
:10332000bc109000810f500003003100b086fb00fc
:10333000700e9800030037000c007800e7000700cb
:1033400080067800a0ae21006d407800e0cf9f009d
:10335000804278000580fb008e0f5000280031006d
:103360006174b8006055b8000802be000a03be00d0
:10337000f0ff2f00f1ff2f000001be00fd0207004b
:103380001faa9700afaa97003fab9700cfab97005b
:103390000020e10001a8e10002b0e10003b8e10073
:1033a00017003e000802be000a03be001fa89700d7
:1033b000afa897003fa99700cfa997005603070031
:1033c000efca97000584fb008004eb006055b8004d
:1033d0000882ea008982ea000a83ea008b83ea0015
:1033e0000400e1000588e1000690e1000798e10093
:1033f000c2ff360002003700800678000400370064
:103400001fac9700afac97003fad9700cfad9700d2
:10341000a0ae21006d4078000080fb008e0f5000b0
:10342000200031000d00780009003700fc089000f2
:103430003c109000808f5000030031003180fb0071
:10344000710e9800020037000c007800a3000700fe
:10345000a1ae210060c078000080fb008e0f5000fc
:10346000f2ff39002002200050e288005fab970095
:103470000608a300070032005fac9700efac97008e
:103480007fad97008fb597008003eb0087af9f005b
:10349000040037005fac9700efac97007fad97005a
:1034a0008fb597003c1090000000e0000300320050
:1034b0007c0890000000e900700e98005fa897005b
:1034c000efa897007fa997008fb197000040e10017
:1034d00001c8e10002d0e10003d8e1001c0039007e
:1034e0000008a3000e003a008fa897000100e0003a
:1034f0000b003a002002200050e288005faa9700eb
:10350000efaa97007fab97008fb39700610252003c
:10351000e0825a0060035b00e0835b001500370027
:103520005fa89700efa897007fa997008fb1970039
:103530000040e10001c8e10002d0e10003d8e10051
:10354000030036002002200050e2880014003700fb
:103550008fa89700e18f40000b003a006000b80090
:103560006011b80008025000898258000a0359000f
:103570008b835900d4af9f00e5af9f00f6af9f004b
:1035800087b79f00060037000800be000a01be0092
:10359000d0af9f00e1af9f00f2af9f0083b79f00c5
:1035a0005fa89700efa897007fa997008fb19700b9
:1035b0004f0778004f06be004f05be004f04be0007
:1035c0006f02b100000006008e002000d0fe370020
:1035d000a0fd2f00f1ff2f00250107004f89de001d
:1035e00082017800000006000200fa0081017800e4
:1035f000e0ff9f00930090000188a30005003200c7
:10360000d3009000805878000080fb00d101980022
:103610000a003700120020008f80e90003007800c4
:10362000c5fa0700800078000080eb000100e00090
:1036300002003200eff897000180fb000080fa00e2
:1036400000000600e8ff3700889fbe008a9fbe008a
:103650004410980055109800661098007710980054
:10366000f00890002004900001045400cfc4de0054
:10367000614db90008189800191898002a18980088
:103680003b189800e00f5200e08f5a00e00f5b00fb
:10369000e08f5b000c003200001490000104540025
:1036a000cfc4de00614db9000440e10005c8e1006f
:1036b00006d0e10007d8e100030034000482400096
:1036c00034109800020037008010900031109800ec
:1036d0004f05be004f04be00000006002800fa009f
:1036e000889fbe008a1f780000047800f8089000c8
:1036f0002800900000805000081a9000981a90004e
:10370000281b9000b81b9000cf80de000402400010
:10371000858248000683480087834800481090004f
:10372000d810900068119000f8119000e00f500040
:10373000e08f5800e00f5900e08f5900050032007b
:103740000020e10001a8e10002b0e10003b8e100bf
:103750000d003d0008007800d4b79f00e5b79f003a
:10376000f6b79f0087bf9f00fc0007008004780029
:103770005fb29700efb297007fb397008fbb9700bf
:103780000900e00016003d0078089000a8009000b5
:10379000808050004f89de0004824000850249008d
:1037a0000603490087034900041c9800151c980073
:1037b000261c9800371c980030149800f0ff2f004a
:1037c000f1ff2f000001be00401498005114980032
:1037d00062149800731498008084eb005200370044
:1037e00061004200e0804a0060014b00e0814b0034
:1037f00090bf9f00a1bf9f00b2bf9f00c3bf9f00ab
:1038000048129000d812900068139000f8139000ae
:1038100094b79f00a5b79f00b6b79f00c7b79f009a
:10382000e00f5200e08f5a00e00f5b00e08f5b007a
:1038300028003200780d9000081190000a01510014
:103840006112b900612bb900d4af9f00e5af9f00b2
:10385000f6af9f0087b79f001fb09700afb09700eb
:103860003fb19700cfb197001fba9700afba97004a
:103870003fbb9700cfbb97000400500085805800e5
:10388000060159008781590090af9f00a1af9f00aa
:10389000b2af9f00c3af9f005faa9700efaa970047
:1038a0007fab97008fb397000020e10001a8e100f3
:1038b00002b0e10003b8e100060034009fb29700b7
:1038c0001fbb97000681520082004500311498000a
:1038d00002003700881390003714980028019000e8
:1038e000f8089000810151001fba9700afba970005
:1038f0003fbb9700cfbb97004f98de00048241008a
:10390000850248000603480087034800041c98000d
:10391000151c9800261c9800371c9800828f5000b8
:1039200001003e00f9f89f00090078004f0578007b
:103930004f04be000080fa0000000600881f7800d7
:103940008101780000027800808268000508a300e9
:1039500002003200210037000201e9000300780074
:10396000040478000308a300070032000200e0000e
:1039700021003200b3407800015a78000104e000d1
:10398000f5ff3a00020037000200e0001a003200a2
:103990001004e00003003a0017003700031c780011
:1039a0000281e90080007800e10f51000800360034
:1039b000b0017800f5ef2f00838242000382ea0015
:1039c000048262000508280005026200f3ff32004d
:1039d00008007800010037000201e90000047800c7
:1039e0000200e00004003200b14178000358780082
:1039f0000304e000f8ff3a008000eb0008007800c4
:103a000023f70700080078004f0478000000060044
:103a100080007800040037003104e00002003a0022
:103a20000000510000000600010178000108a30019
:103a3000f9ff3a008101780031017800f4ef2f009e
:103a4000020242000281ea0002016200040828002a
:103a500004016100f7ff3200830078000101780063
:103a60003104e000fdff3a000000510000000600b4
:103a700002002f00f3ff2f00820f5000838f5800a9
:103a8000040036000000ea0050e288000080eb00ed
:103a90008080eb0000000600f1fb2f0080804000da
:103aa000f98f500001003e000050a0000000060009
:103ab000f9ff3700f1f92f0080804000f98f5000a6
:103ac00001003e00f005b20000000600f9ff3700db
:103ad0000000060058f70700fdff0700fcff370055
:103ae000881f78000004780000082000808f5000b4
:103af0001700350010082000808f50000b003400a4
:103b000030082000808f500011003a0092007800a9
:103b100068805000000978003002be002003be001b
:103b2000049cbe000694be00070037009202780095
:103b300064805200000978001000be004f000700aa
:103b4000009cbe000294be0010002000010037005f
:103b50000000eb004f047800000006000200fa00ad
:103b6000889fbe000004780008007800100007005d
:103b70008084eb000000e00009003a0098119000fa
:103b800012002000e68057000800780003000100c2
:103b9000e10f500002003a002ff897008084fb00ec
:103ba000090078004f04be000080fa000000060003
:103bb000881f780000047800486090008040e90089
:103bc00000c0700040649800d80090006800900029
:103bd000808f500005003600b80990000001eb000e
:103be0008200780008007800030001000000eb006c
:103bf000200c9800600498005004980098009000f1
:103c00000118a300030032000140a0001104980035
:103c100008003700280190003800900000004100a3
:103c200000149800700c98000000eb000138a3000d
:103c3000010032000080eb004f0478000000060015
:103c4000020037000000060000000500fdff07002d
:103c500060e280008000eb00fbff070060df800077
:103c60008000eb00f8ff070060e280008000eb00be
:103c7000f5ff370000c0da0000000600810378007d
:103c80004af607000001be006000b8000478a300f7
:103c900013003a006220e10015003e000d003900db
:103ca0008301d1000281d3008180d3008301d10040
:103cb0000281d3008180d3008301d1000281d3002f
:103cc0008180d3000538b000c42add00f300b200c3
:103cd0008381720007f0a70003f0a0000000060037
:103ce00083ff2700020020006110b900f9ff3700b0
:103cf00003ff2700f7ff3700020ab900001bb900d5
:103d00000200b8008100420081004300000006006c
:103d1000889fbe008a9fbe0030044200b0844a00e3
:103d200030054b0090854b006000b1000898be0044
:103d30000a90be000440e10005c8e10006d0e100a1
:103d400007d8e10002003100680040001008e800d8
:103d50004f05be004f04be0000000600889fbe0055
:103d60008a9fbe003004be002005be000418540027
:103d700005985c0006185d0007985d0011002000a2
:103d80000440e10005c8e10006d0e10007d8e100e9
:103d9000010039008000eb00108810004f05be00c4
:103da0004f04be00000006001200fa00889fbe000b
:103db0008a9fbe008c9fbe00e0b79f00f1b79f00b6
:103dc00082bf9f0093bf9f000605be000404be0093
:103dd0000000eb00d0b79f00c0b79f00b0b79f00b6
:103de000a0b79f0090b79f00000678005fb19700d2
:103df000cfb09700820141003fb097000200e00081
:103e000004003d00370007007e805700c0ff070018
:103e100003003700330007007e805700cfff070004
:103e2000dfb697000d00e0000c0035006fb2970080
:103e3000ffb297000fbb97009fbb970010002000b8
:103e4000010020006011b80000027200818272003f
:103e500002037300838373001b0007000c06e80055
:103e600001042000810f5600e0ff3a000d00e00041
:103e700004003d000802be000a03be007e80570019
:103e8000a3ff07005fa897000000e00005003a00cc
:103e90001fb29700afb297003fb39700cfb3970020
:103ea000090007006fb09700ffb097000fb99700a7
:103eb0009fb997004f06be004f05be004f04be00dd
:103ec0000080fa0000000600010007000000060064
:103ed000a4b79f00b5b79f00c6b79f00d7b79f0094
:103ee000000006004f09de0082817100b3b79f0019
:103ef0004f01de008180400082807000a1b79f00ea
:103f00008fb097004f09de000000400002007000f3
:103f100090b79f007fa897004f01de00818040008e
:103f20008280700081b79f000d0007004f3ade00cd
:103f30000000400004007000f0af9f000800070080
:103f40000402420085824a0006034b0087834b002f
:103f5000dfff07000802be000a03be0000000600e3
:103f60002fb29700bfb297004fb39700dfb397000f
:103f700000000600881f780018002000881f7800c5
:103f800089ff07008f87e9004f04780000000600d2
:103f9000801feb0084ff07008f87e9000000060008
:103fa000889fbe008a9fbe00e00f5000e08f58003f
:103fb000e00f5900e08f59000c003d006044b8004c
:103fc0006055b8000000540081805c0002015d0073
:103fd00083815d00180020001500070008003d00e7
:103fe000180007000004eb00050037000004eb0098
:103ff0000f00070002003d0012000700180020001b
:10400000dcff07000800e000060032006022b80074
:104010006033b8000000520081805a0002015b004a
:1040200083815b004f05be004f04be000000060008
:10403000e00f5200e08f5a00e00f5b00e08f5b0062
:10404000000006006044b8006055b8000402540047
:1040500085825c0006035d0087835d00000006002a
:10406000889fbe008a9fbe008c1f7800e00f500022
:10407000e08f5800e00f5900e08f59000d003d001f
:104080006044b8006055b8000000540081805c00b6
:1040900002015d0083815d001c0020000820e1001a
:1040a00009a8e1000ab0e1000bb8e1000d003d00f5
:1040b000080037000006eb00e00f5200e08f5a00c6
:1040c000e00f5b00e08f5b0006003d006044b8003d
:1040d0006055b8000402540085825c0006035d0050
:1040e00087835d00aaff07000c00e0000600320095
:1040f0006022b8006033b8000000520081805a008e
:1041000002015b0083815b004f0678004f05be0013
:104110004f04be0000000600889fbe008a9fbe00bc
:104120008c1f78000006eb00e00f5000e08f580075
:10413000e00f5900e08f590007003d006044b800cf
:104140006055b8000000540081805c0002015d00f1
:1041500083815d001c002000e00f5200e08f5a00b8
:10416000e00f5b00e08f5b0007003d006044b8009b
:104170006055b8000402540085825c0006035d00af
:1041800087835d000c00a2000c0007000c00e0001b
:10419000060032006022b8006033b8000000520010
:1041a00081805a0002015b0083815b004f0678002a
:1041b0004f05be004f04be0000000600889fbe00f1
:1041c0008a9fbe008c9fbe000404b8000506b8009c
:1041d0008904460060854e000606b8000a054600c0
:1041e000e0854e000706b8008b054600040eb800b7
:1041f000890446000a854e00e0854d00050eb80092
:104200000a0546008b854e00060eb8008b05460059
:104210000416b8000a0546008b854e000516b80046
:104220008b054600041eb8008b0546000800be0042
:104230000a01be004f06be004f05be004f04be007f
:044240000000060074
:020000040000fa
:104244007561000072740000536500006e64000024
:104254000075000061720000745200006563000084
:104264006569000076650000004800006561000093
:1042740072740000426500006174000000250000b3
:1042840030320000780000001111000022220000ea
:1042940033330000444400005555000066660000b6
:1042a400777700008888000099990000aaaa000086
:1042b400bbbb0000cccc0000dddd0000eeee000056
:1042c400cecd0000acab0000040000004944000067
:1042d4004c45000000a50000a5a50000a5a5000010
:1042e400a5a50000a5a50000a5a50000a5a50000a2
:1042f400a5a50000a5a50000a5a50000a500000037
:10430400546900006d650000725f000041440000c4
:1043140000540000696d0000657200005f410000f8
:104324005647000000000000546900006d6500005d
:10433400725f000041440000000000005469000066
:104344006d650000725f0000425400000000000030
:10435400546d0000722000005376000063000000da
:044364000400000051
:020000040000fa
:104368001000fa00200798003107980042079800cb
:10437800530798006407980075079800a003200069
:10438800c262020000000000000f78001e007800e2
:104398000000e00017003200bc19a800a2032000aa
:1043a8008000eb001e007800480b020000000000af
:1043b8004e00900000004000c262020000000000b1
:1043c800800078001e007800610898001e007800c0
:1043d800600890000000e00006003a00bc39a80020
:1043e8001e007800da630200000000000000eb0005
:1043f800000f78001e0078000000e0001300320073
:10440800bc59a8004e0090008000eb000001eb00b2
:10441800821f78009e0378007e039000ee029000d1
:104428005e0290000001be00be0090002e009000c9
:104438000d0007008f87e9001e0078007c00070048
:10444800100020001007980003003700bc79a8006e
:104458000080eb0010079800bc99a8001e0090008f
:104468000080fa00000006001400fa0020079800f7
:10447800310798004207980053079800640798008e
:1044880075079800060f9800170f98004e009000c7
:1044980000004000800078001e089000600890002e
:1044a80001017800510a2000480b020000000000ba
:1044b8001e089000e0089000110798001e08900060
:1044c800e00890004e019000f0ff27000000410036
:1044d80000004000808040001e0890007110980085
:1044e8003e0090000000e0001c0032000000eb00dd
:1044f800000f78000e0037003e0090001e004000bc
:10450800904078001e0890001e0040007e00400089
:10451800014878003e0090001e00400010407800de
:104528000004e00007003200bcb9a8001e0fe80034
:104538001e007800ef0f5000efff3600bcf9a8000e
:1045480002003700bcd9a80000000000bd19a8006f
:104558001e0890008040eb00516898007e00900093
:10456800e40f500003003600bd39a80040002000c9
:10457800700798001e089000fe00900051089800ef
:104588001e089000fe009000011898001e08900078
:104598000080e80096780200000000001e089000e5
:1045a8006e00400096780200000000001e0890008f
:1045b8009e089000510098007e0090008000eb005b
:1045c80052002000030020000000510081805900a3
:1045d8001e09900070019800010998001e089000bb
:1045e8009e089000310898006e019000ae0090007f
:1045f8001e009000aa7902000000000080007800e8
:104608001e089000010878000e0890000000e000e5
:1046180004003200bd59a8000e0890009e089000c2
:1046280001087800bd79a8000080fa0000000600a3
:104638000400fa0010079800ae7a0200000000009b
:1046480060c980000000e80060c9880030c68000aa
:104658000000e00009003a00bd99a8009e00900003
:1046680031c6880060c98000e10f500011003a008f
:10467800bdb9a800010707000e003700bdd9a80082
:10468800a0c980000000e0000a003a00bdf9a800b7
:1046980030c68000d00890001e009000500890009e
:1046a800808f500003003e00be19a8009e009000b5
:1046b80031c68800f0c980000000e800f0c9880011
:1046c8001e009000d008900090c98000808f500094
:1046d80004003600be39a8001e0090005008900063
:1046e80090c988001e009000500890006c00b90026
:1046f80080007800808c21000080400090009000ad
:10470800010f78001e0090009e007800310098008c
:104718001e007800b00090001e0090004100980034
:104728001e007800300090009e0090008180e80014
:10473800210098001e0090008080e8001e0078008c
:10474800310098001e009000500890006c00b900dd
:1047580080007800808c2100808040001e0090003e
:10476800610098001e009000500890006c00b9008d
:1047780080007800808c2100008040009000780044
:104788008100e80001087800ca7a020000000000f1
:10479800a0c980000000e0000b003200be59a8004c
:1047a80030c68000d00890001e009000500890008d
:1047b800808f500004003100be79a800a480020058
:1047c8000000000000000000be99a8000080fa0068
:1047d800000006000600fa0010079800210798005c
:1047e8000000eb00000f78001e009000ae00900063
:1047f800e00f5000e08f580008003200beb9a80052
:10480800410107000001eb001e009000ae0090007f
:10481800220c070043010700000f78001e007800f3
:104828000000e00004003a00bed9a800a4800200fd
:104838000000000000000000bef9a8000080fa0097
:10484800000006000c00fa0050079800de009000f7
:104858001107980030c680009e009000808f50009d
:1048680004003a00bf19a8000000eb00000f780010
:104878001b003700ae7a0200000000001e00900006
:10488800e000900021079800e1c8800031079800f7
:10489800f1c8800041079800ca7a020000000000b1
:1048a800ae0090003e009000808f5000050032005e
:1048b800bf39a800ae0090004e009000808f5000d5
:1048c80004003a00bf79a80020002000000f7800fb
:1048d80003003700bf59a80010002000000f78001f
:1048e800bf99a8001e0078000080fa0000000600aa
:1048f8000600fa0020079800ae7a020000000000c7
:104908002e0090000000e00003003a00bfb9a800a4
:1049180030c6800002003700bfd9a8002e009000e2
:10492800bff9a800000f78001e007800d00890009a
:1049380011079800ca7a0200000000001e009000cb
:104948000080fa00000006000800fa00300798000e
:104958000000eb00000f78003e0090000000e0002f
:1049680003003a00c019a80030c6800002003700d2
:10497800c039a8003e009000c059a8001007980050
:104988001e009000d0089000210798002e0090008b
:104998000080fa00000006000e00fa005007980098
:1049a800610798000000eb00000f78006e0090008f
:1049b800e40f500003003600c079a8004000200032
:1049c80060079800ae7a0200000000005e009000c8
:1049d8000000e00003003a00c099a80030c680003b
:1049e80002003700c0b9a8005e00900010079800c8
:1049f8001e0090008018900021079800ae009000db
:104a08006e009000808f500083003200ee0090000e
:104a18002e009000808f50000f003600c0d9a800eb
:104a280030c680009e009000808f50001200320037
:104a3800c0f9a80030c68000d00890006e00900031
:104a4800808f50000c003e00c119a8001000200003
:104a5800000f780008003700c139a80030c6800070
:104a68009e009000808f500003003a00c159a800b2
:104a780010002000000f78001e009000d008900061
:104a8800310798001e009000801890001e009000ca
:104a980050089000808f500004003a00c179a800a7
:104aa8001e009000ee009000510898001e00900033
:104ab800ee009000011898001e00900080089000f9
:104ac80070009000e00f5000e08f58000a00350099
:104ad800c199a8006e0090008000eb0052002000f1
:104ae8000300200000005100818059001e01900041
:104af80070019800010998001e0090006001900064
:104b08003e0090006c00b90080007800808c210085
:104b180000804000800f510037003a001e009000ce
:104b28000080e8005e790200000000001e0090008e
:104b3800d008900090c98000808f50000400360093
:104b4800c1b9a8001e0090005008900090c98800c4
:104b5800c1d9a8001e009000500890006c00b90050
:104b680080007800808c2100008040009000900038
:104b7800410798001e009000ce0090003100980078
:104b88004e009000b00090001e0090004100980078
:104b98004e009000300090009e0090008180e80058
:104ba800210098001e0090008080e8004e009000d0
:104bb800310098001e009000500890006c00b90069
:104bc80080007800808c2100808040001e009000ca
:104bd800610098001e009000500890006c00b90019
:104be80080007800808c21000080400090007800d0
:104bf8008100e80001087800c1f9a8001e007800cb
:104c08000000e00004003200c219a800a4800200dd
:104c18000000000000000000c239a800ca7a0200a3
:104c2800000000000080fa00000006000200fa0000
:104c3800459421000002eb008001eb0002082000ef
:104c480081162a0060122300c5fd0700000f7800b6
:104c58001e007800e10f500004003a00c259a80075
:104c68009255020000000000000f78001e00780036
:104c7800e10f500012003a00c279a800110280002a
:104c8800f0f12f00008060000050a00010028800a2
:104c980000000000000000000080eb008080eb00b6
:104ca80000ca880011ca880010002000a0c9880026
:104cb8002e39ef003039ef00487a0200000000007a
:104cc800c299a800300b85000080fa000000060099
:104cd8000000fa00c2b9a80011028000f0f12f000c
:104ce800008060000050a000100288000000000052
:104cf800000000003439ef007c7a02000000000058
:104d08000080fa00000006000000fa00c2d9a800de
:104d180030ca80000000e80030ca88000080fa002d
:104d2800000006000e00fa000000eb00000f7800fb
:104d38000000eb0010079800ae7a020000000000a7
:104d480030ca80000000e90030ca880030ca8000fc
:104d58000000e000b1003a00c2f9a80060c9800074
:104d68000000e000ad0032007c00370040c9800040
:104d780040009000000f78001e007800c0089000e6
:104d8800410798001e007800100890009e007800e7
:104d9800a1089000310098001e00780020089000bb
:104da8009e00780091089000210098004e00900025
:104db800900090001e0178006e004100808f500026
:104dc80005003a00c319a8001e007800a00890004a
:104dd8004e009000110098001e0078008000eb0043
:104de800410898004e009000100078008000e9000b
:104df8004e009000010878001e007800e001900045
:104e0800530798001e007800300090009e0078003c
:104e1800c1009000310098001e007800400090000a
:104e28009e007800b1009000210098005e0090007c
:104e3800900090001e80e800808f500005003a0026
:104e4800c339a8001e007800c00090005e009000e2
:104e5800110098001e0078008000eb0061009800a7
:104e68005e009000100078008000e9005e0090006d
:104e7800010878001e007800d008900090c98000d2
:104e8800808f500004003600c359a8001e00780027
:104e98005008900090c98800c379a8001e007800c7
:104ea800500890006c00b90080007800808c2100c8
:104eb8000080400090009000610798001e00780074
:104ec8006e019000320098006e009000b0009000d3
:104ed8001e007800410098006e009000300090009d
:104ee8009e80e800210098009e80e8006e009000f7
:104ef800310098001e007800500890006c00b9003e
:104f080080007800808c2100808040001e0078009e
:104f1800610098001e007800500890006c00b900ed
:104f280080007800808c210000804000900078008c
:104f38008100e800010878001e007800d008900081
:104f480030c6800050089000808f50000300390060
:104f5800c399a80010002000d0c9880000c98000ab
:104f68000000e00081ff3a001e0078000000e00029
:104f780002003200c3b9a800e4040700b2c98000e7
:104f8800c3c9800022079800330798002e009000bc
:104f9800be009000e00f5000e08f5800150032006e
:104fa8006c0107000000e00003003200c3d9a8002c
:104fb80010002000d0c98800c3f9a8002e00900076
:104fc800be00900061005000e08058002007980063
:104fd800310798002e009000be009000e00f5000ae
:104fe800e08f5800eeff3a00c419a8003639ef00e8
:104ff8003839ef00c439a800d0c980000000e000ab
:1050080006003200c459a8001000200010079800bc
:10501800a48002000000000000000000c479a8007d
:10502800ca7a0200000000001e0090000080fa000a
:10503800000006000400fa00c499a800ae7a020035
:105048000000000072c9800083c98000028fbe0082
:10505800ca7a0200000000001e00be000080fa00ac
:10506800000006000600fa00c4b9a8000000eb0022
:10507800000f780072c9800083c980001207980069
:10508800230798001e009000ae0090000080fa00f0
:10509800000006000000fa00c4d9a80060c980001a
:1050a8000080fa00000006000400fa0010079800cb
:1050b8001e0090000000e00003003a00c4f9a800b8
:1050c80030c6800002003700c519a8001e009000f5
:1050d800c539a800000f78009e0078007e80400047
:1050e8000080fa00000006001400fa00000f980083
:1050f800110f98000000eb00000f78000e089000d8
:10510800100078000000e000660032008e08900071
:10511800310798003e00900010009000a000900019
:105128003e009000110098003e0090009000900012
:105138003e00900064004000808f500006003a0056
:10514800c559a8003e00900010009000a0009000f3
:105158003e009000110098003e0090001000900062
:1051680040009000400798000e09900052079800f0
:105178005e00900010009000a00090005e0090007b
:10518800110098005e009000900090005e00900072
:1051980064004000808f500006003a00c579a800de
:1051a8005e00900010009000a00090005e0090004b
:1051b800110098005e0090001000900040009000e0
:1051c800600798000000eb00200798000000eb0043
